:100000000C942A000C9447000C9447000C94470071
:100010000C9447000C9447000C9447000C94470044
:100020000C9447000C9447000C9447000C94470034
:100030000C9447000C9447000C9447000C94470024
:100040000C9447000C9447000C9447000C94470014
:100050000C94470011241FBECFE5D4E0DEBFCDBF16
:1000600011E0A0E6B0E0ECE5F9E002C005900D92E9
:10007000A233B107D9F721E0A2E3B1E001C01D929C
:10008000A233B207E1F70E94B1010C94AC040C94C6
:10009000000090BD89B98AB188698AB952986630E2
:1000A00069F018F4653031F00EC0673029F069301E
:1000B00039F009C080E808C084E806C082E804C0BE
:1000C000529A86E801C086E8413011F4806303C08B
:1000D000423009F48062223009F4886080BD0895BE
:1000E0005D9BFECF8CB90895CF93DF93EC0188819F
:1000F000882331F021960E94700089918111FBCFF5
:10010000DF91CF9108955F9BFECF8CB1089585BBA1
:1001100096989598979A000097988DEE92E001979F
:10012000F1F700C00000089585BB969A9598979ABC
:100130000000979889EF90E00197F1F700C0000068
:1001400008958FEF81BB84BB87E893E10197F1F7B6
:1001500000C0000088E30E9487008CE00E948700B6
:1001600086E00E94870081E00E94870080E80E946C
:1001700087000895CF93DF93EC018881882331F0C5
:1001800021960E94940089918111FBCFDF91CF913C
:10019000089581E00E94870080E80E94870083EC38
:1001A00099E00197F1F700C00000089520916000E8
:1001B000AC01249FC001259F900D1124009769F088
:1001C00020E030E0E9EFF0E03197F1F700C0000007
:1001D0002F5F3F4F28173907A9F70895CF93DF9373
:1001E000CDB7DEB7A9970FB6F894DEBF0FBECDBF6F
:1001F00021E040E068E083E390E00E9449000E9433
:10020000A1000E94C90080E80E9487008FEF90E063
:100210000E94BA0080EC0E9487008FE091E00E946B
:10022000BA000F2EFAE04F2EF02D6E018FE1C80EAE
:10023000D11C7E0197E2E90EF11C0F2EFAE08F2E01
:10024000912CF02D0F2EFAE96F2EF0E07F2EF02D7D
:10025000FE0131965F01512C3E2EB9A6F601842D88
:1002600011928A95E9F77AC01CB182E090E00E9471
:10027000D6001A3A09F072C08CB1803C09F06EC009
:100280008E010F5D1F4F252C0E948300F801819382
:100290008F01280EEE15FF05B9F70E948300182F75
:1002A0000E94830021125AC08CA190E0982F8827C9
:1002B0002BA1820F911DB4010E94B3018B018AA171
:1002C00090E0982F882729A1820F911DB4010E94E8
:1002D000B30177277F936F937F926F92BF92AF9214
:1002E0000E94DB018FE191E00E947400832D99A5AB
:1002F0000E9474008DE00E947000842D0E947000A6
:1003000088E80E948700832D99A50E94BA001127D2
:100310001F930F937F926F92BF92AF920E94DB0167
:1003200088E291E00E947400832D99A50E947400D8
:100330008DE00E947000842D0E94700088EC0E9465
:100340008700832D99A50E94BA0088EE93E00E9451
:10035000D6000FB6F894DEBF0FBECDBF5F9984CF35
:100360007DCF0E94EE0097FB072E16F4009407D075
:1003700077FD09D00E94C70107FC05D03EF4909597
:1003800081959F4F0895709561957F4F0895AA1BA1
:10039000BB1B51E107C0AA1FBB1FA617B70710F070
:1003A000A61BB70B881F991F5A95A9F780959095A2
:1003B000BC01CD010895AEE0B0E0E1EEF1E00C94B7
:1003C00083040D891E8986E08C831A8309838FEF4D
:1003D0009FE79E838D83AE01475E5F4F6F89788D67
:1003E000CE0101960E94FD01EF81F885E00FF11F1B
:1003F00010822E96E4E00C949F04ACE0B0E0E3E0C1
:10040000F2E00C9475047C016B018A01FC011782F7
:100410001682838181FFBDC1CE0101964C01F70197
:100420009381F60193FD859193FF81916F0188235C
:1004300009F4ABC1853239F493FD859193FF819125
:100440006F01853229F4B70190E00E94E503E7CF00
:10045000512C312C20E02032A0F48B3269F030F4A2
:10046000803259F0833269F420612CC08D3239F02A
:10047000803339F4216026C02260246023C02860C4
:1004800021C027FD27C030ED380F3A3078F426FF21
:1004900006C0FAE05F9E300D1124532E13C08AE08F
:1004A000389E300D1124332E20620CC08E3221F480
:1004B00026FD6BC1206406C08C3611F4206802C092
:1004C000883641F4F60193FD859193FF81916F0188
:1004D0008111C1CF982F9F7D9554933028F40C5FE4
:1004E0001F4FFFE3F9830DC0833631F0833771F07E
:1004F000833509F05BC022C0F801808189830E5FDB
:100500001F4F44244394512C540115C03801F2E08C
:100510006F0E711CF801A080B18026FF03C0652D0D
:1005200070E002C06FEF7FEFC5012C870E94DA03F5
:100530002C0183012C852F77222E17C03801F2E081
:100540006F0E711CF801A080B18026FF03C0652DDD
:1005500070E002C06FEF7FEFC5012C870E94CF03D0
:100560002C012C852068222E830123FC1BC0832DA7
:1005700090E048165906B0F4B70180E290E00E947E
:10058000E5033A94F4CFF50127FC859127FE81918C
:100590005F01B70190E00E94E50331103A94F1E069
:1005A0004F1A51084114510471F7E5C0843611F017
:1005B000893639F5F80127FF07C060817181828192
:1005C00093810C5F1F4F08C060817181882777FD80
:1005D0008095982F0E5F1F4F2F76B22E97FF09C080
:1005E00090958095709561957F4F8F4F9F4F2068B4
:1005F000B22E2AE030E0A4010E941704A82EA81809
:1006000044C0853729F42F7EB22E2AE030E025C081
:10061000F22FF97FBF2E8F36C1F018F4883579F0AC
:10062000B4C0803719F0883721F0AFC02F2F206178
:10063000B22EB4FE0DC08B2D8460B82E09C024FFED
:100640000AC09F2F9660B92E06C028E030E005C092
:1006500020E130E002C020E132E0F801B7FE07C03F
:1006600060817181828193810C5F1F4F06C0608120
:10067000718180E090E00E5F1F4FA4010E9417047B
:10068000A82EA818FB2DFF77BF2EB6FE0BC02B2D72
:100690002E7FA51450F4B4FE0AC0B2FC08C02B2D66
:1006A0002E7E05C07A2C2B2D03C07A2C01C0752C10
:1006B00024FF0DC0FE01EA0DF11D8081803311F48D
:1006C000297E09C022FF06C07394739404C0822F50
:1006D000867809F0739423FD13C020FF06C05A2CBE
:1006E000731418F4530C5718732C731468F4B7016F
:1006F00080E290E02C870E94E50373942C85F5CF6F
:10070000731410F4371801C0312C24FF12C0B70144
:1007100080E390E02C870E94E5032C8522FF17C020
:1007200021FF03C088E590E002C088E790E0B701B0
:100730000CC0822F867859F021FD02C080E201C0F2
:100740008BE227FD8DE2B70190E00E94E503A5143E
:1007500038F4B70180E390E00E94E5035A94F7CFA4
:10076000AA94F401EA0DF11D8081B70190E00E9486
:10077000E503A110F5CF332009F451CEB70180E293
:1007800090E00E94E5033A94F6CFF70186819781C5
:1007900002C08FEF9FEF2C96E2E10C949104FC01D4
:1007A0000590615070400110D8F7809590958E0F9C
:1007B0009F1F0895FC016150704001900110D8F70F
:1007C000809590958E0F9F1F08950F931F93CF9341
:1007D000DF93182F092FEB018B8181FD03C08FEF71
:1007E0009FEF20C082FF10C04E815F812C813D8130
:1007F000421753077CF4E881F9819F012F5F3F4F37
:1008000039832883108306C0E885F985812F0995EF
:10081000892B29F72E813F812F5F3F4F3F832E8306
:10082000812F902FDF91CF911F910F910895FA01A1
:10083000AA27283051F1203181F1E8946F936E7F1F
:100840006E5F7F4F8F4F9F4FAF4FB1E03ED0B4E010
:100850003CD0670F781F891F9A1FA11D680F791F51
:100860008A1F911DA11D6A0F711D811D911DA11D62
:1008700020D009F468943F912AE0269F1124301972
:10088000305D3193DEF6CF010895462F4770405D0D
:100890004193B3E00FD0C9F7F6CF462F4F70405DBC
:1008A0004A3318F0495D31FD4052419302D0A9F717
:1008B000EACFB4E0A6959795879577956795BA9511
:1008C000C9F700976105710508959B01AC010A2ED7
:1008D00006945795479537952795BA95C9F7620FAE
:1008E000731F841F951FA01D08952F923F924F9252
:1008F0005F926F927F928F929F92AF92BF92CF92B0
:10090000DF92EF92FF920F931F93CF93DF93CDB7B8
:10091000DEB7CA1BDB0B0FB6F894DEBF0FBECDBF30
:1009200009942A88398848885F846E847D848C8401
:100930009B84AA84B984C884DF80EE80FD800C810A
:100940001B81AA81B981CE0FD11D0FB6F894DEBFED
:0C0950000FBECDBFED010895F894FFCF5D
:10095C0008456C656374726F6E696357494E4753F3
:10096C000048656C6C6F20576F726C640062793A4A
:10097C00204875752048756F6E67004144433A20D6
:10098C00303030302F31303234002534640048752B
:10099C00752048756F6E672C203230313636323602
:1009AC00322C20445430352D6B3631005669656E2F
:1009BC0020445456542C205472756F6E6720444852
:1009CC00424B204861204E6F6900446F616E204895
:1009DC0075752048756F6E672C2032303136363283
:1009EC0036322C204454565430352D4B3631005071
:1009FC006D322E35203D202D2D2D2D20756700506C
:100A0C006D203130203D202D2D2D2D20756700506F
:100A1C006D322E35203D2000506D313020203D2090
:020A2C000000C8
:00000001FF
