S01400004156525F4B69745F546573742E73726563A1
S11300000C9434000C9451000C9451000C94510045
S11300100C9451000C9451000C9451000C94510018
S11300200C9451000C9451000C9451000C94510008
S11300300C9451000C9451000C9451000C945100F8
S11300400C9451000C9451000C9451000C945100E8
S11300500C9451005E006000620064006600680059
S11300606A006C006F006E0011241FBECFE5D4E05F
S1130070DEBFCDBF10E0A0E6B0E0ECE7F1E002C0E7
S113008005900D92A036B107D9F720E0A0E6B0E0C4
S113009001C01D92A136B207E1F70E94B4000C948E
S11300A0BC000C94000025B3287090E08A309105C0
S11300B0B0F4FC01E65DFF4F0C94B60020680FC05D
S11300C0236E0DC024640BC0216409C0236207C0E1
S11300D0216105C0206103C0236C01C0216025BBE0
S11300E0089596B39F709F3081F0B09B07C0B19B79
S11300F007C0B29B07C0B39B07C0089581E0089571
S113010082E0089583E0089584E0089581B38FEF39
S113011081BB92B382BB94B384BB95B385BB0F2ED2
S1130120F3EFFF2EF02D0FEF1FECDFE3CCEF0E9477
S11301307100809360000E945300809160008230BF
S113014059F018F4813031F00DC0833039F0843027
S113015039F008C0C2BBEBCFF2BAE9CF12BBE7CF8C
S1130160D2BBE5CF02BBE3CF0E948600EE0FFF1F98
S10F01700590F491E02D0994F894FFCF61
S9030000FC
